{
  "contractName": "Marketplace",
  "abi": [
    {
      "inputs": [],
      "name": "modelCount",
      "outputs": [
        {
          "internalType": "uint256",
          "name": "",
          "type": "uint256"
        }
      ],
      "stateMutability": "view",
      "type": "function",
      "constant": true
    },
    {
      "inputs": [
        {
          "internalType": "uint256",
          "name": "",
          "type": "uint256"
        }
      ],
      "name": "models",
      "outputs": [
        {
          "internalType": "uint256",
          "name": "id",
          "type": "uint256"
        },
        {
          "internalType": "string",
          "name": "name",
          "type": "string"
        },
        {
          "internalType": "string",
          "name": "description",
          "type": "string"
        },
        {
          "internalType": "uint256",
          "name": "price",
          "type": "uint256"
        },
        {
          "internalType": "address payable",
          "name": "creator",
          "type": "address"
        },
        {
          "internalType": "uint8",
          "name": "ratingSum",
          "type": "uint8"
        },
        {
          "internalType": "uint8",
          "name": "ratingCount",
          "type": "uint8"
        }
      ],
      "stateMutability": "view",
      "type": "function",
      "constant": true
    },
    {
      "inputs": [
        {
          "internalType": "address",
          "name": "",
          "type": "address"
        }
      ],
      "name": "pendingWithdrawals",
      "outputs": [
        {
          "internalType": "uint256",
          "name": "",
          "type": "uint256"
        }
      ],
      "stateMutability": "view",
      "type": "function",
      "constant": true
    },
    {
      "inputs": [
        {
          "internalType": "address",
          "name": "",
          "type": "address"
        },
        {
          "internalType": "uint256",
          "name": "",
          "type": "uint256"
        }
      ],
      "name": "purchases",
      "outputs": [
        {
          "internalType": "bool",
          "name": "",
          "type": "bool"
        }
      ],
      "stateMutability": "view",
      "type": "function",
      "constant": true
    },
    {
      "inputs": [
        {
          "internalType": "string",
          "name": "name",
          "type": "string"
        },
        {
          "internalType": "string",
          "name": "description",
          "type": "string"
        },
        {
          "internalType": "uint256",
          "name": "price",
          "type": "uint256"
        }
      ],
      "name": "listModel",
      "outputs": [],
      "stateMutability": "nonpayable",
      "type": "function"
    },
    {
      "inputs": [
        {
          "internalType": "uint256",
          "name": "modelId",
          "type": "uint256"
        }
      ],
      "name": "purchaseModel",
      "outputs": [],
      "stateMutability": "payable",
      "type": "function",
      "payable": true
    },
    {
      "inputs": [
        {
          "internalType": "uint256",
          "name": "modelId",
          "type": "uint256"
        },
        {
          "internalType": "uint8",
          "name": "rating",
          "type": "uint8"
        }
      ],
      "name": "rateModel",
      "outputs": [],
      "stateMutability": "nonpayable",
      "type": "function"
    },
    {
      "inputs": [],
      "name": "withdrawFunds",
      "outputs": [],
      "stateMutability": "nonpayable",
      "type": "function"
    },
    {
      "inputs": [],
      "name": "resetModels",
      "outputs": [],
      "stateMutability": "nonpayable",
      "type": "function"
    },
    {
      "inputs": [
        {
          "internalType": "uint256",
          "name": "modelId",
          "type": "uint256"
        }
      ],
      "name": "getModelDetails",
      "outputs": [
        {
          "internalType": "uint256",
          "name": "id",
          "type": "uint256"
        },
        {
          "internalType": "string",
          "name": "name",
          "type": "string"
        },
        {
          "internalType": "string",
          "name": "description",
          "type": "string"
        },
        {
          "internalType": "uint256",
          "name": "price",
          "type": "uint256"
        },
        {
          "internalType": "address",
          "name": "creator",
          "type": "address"
        },
        {
          "internalType": "uint8",
          "name": "averageRating",
          "type": "uint8"
        }
      ],
      "stateMutability": "view",
      "type": "function",
      "constant": true
    }
  ],
  "bytecode": "0x608060405234801561001057600080fd5b506117de806100206000396000f3fe6080604052600436106100915760003560e01c80636a030ca9116100595780636a030ca91461017e578063c6a645fe146101c1578063dc746862146101ec578063df13419514610208578063f3f437031461021f57610091565b806312ee1c0e146100965780631c788a9a146100bf57806324600fc3146100e857806331fc042f146100ff57806352d3f84914610141575b600080fd5b3480156100a257600080fd5b506100bd60048036038101906100b89190610ebd565b61025c565b005b3480156100cb57600080fd5b506100e660048036038101906100e19190610f65565b6103fd565b005b3480156100f457600080fd5b506100fd6105cf565b005b34801561010b57600080fd5b5061012660048036038101906101219190610f3c565b6106e5565b6040516101389695949392919061139e565b60405180910390f35b34801561014d57600080fd5b5061016860048036038101906101639190610e81565b610954565b604051610175919061120b565b60405180910390f35b34801561018a57600080fd5b506101a560048036038101906101a09190610f3c565b610983565b6040516101b89796959493929190611321565b60405180910390f35b3480156101cd57600080fd5b506101d6610b0f565b6040516101e39190611306565b60405180910390f35b61020660048036038101906102019190610f3c565b610b15565b005b34801561021457600080fd5b5061021d610cec565b005b34801561022b57600080fd5b5061024660048036038101906102419190610e58565b610cf6565b6040516102539190611306565b60405180910390f35b6000811161029f576040517f08c379a000000000000000000000000000000000000000000000000000000000815260040161029690611226565b60405180910390fd5b600160008154809291906102b290611623565b91905055506040518060e0016040528060015481526020018481526020018381526020018281526020013373ffffffffffffffffffffffffffffffffffffffff168152602001600060ff168152602001600060ff168152506000806001548152602001908152602001600020600082015181600001556020820151816001019080519060200190610344929190610d0e565b506040820151816002019080519060200190610361929190610d0e565b506060820151816003015560808201518160040160006101000a81548173ffffffffffffffffffffffffffffffffffffffff021916908373ffffffffffffffffffffffffffffffffffffffff16021790555060a08201518160040160146101000a81548160ff021916908360ff16021790555060c08201518160040160156101000a81548160ff021916908360ff160217905550905050505050565b600260003373ffffffffffffffffffffffffffffffffffffffff1673ffffffffffffffffffffffffffffffffffffffff168152602001908152602001600020600083815260200190815260200160002060009054906101000a900460ff1661049a576040517f08c379a0000000000000000000000000000000000000000000000000000000008152600401610491906112e6565b60405180910390fd5b6000821180156104ac57506001548211155b6104eb576040517f08c379a00000000000000000000000000000000000000000000000000000000081526004016104e290611246565b60405180910390fd5b60018160ff1610158015610503575060058160ff1611155b610542576040517f08c379a0000000000000000000000000000000000000000000000000000000008152600401610539906112c6565b60405180910390fd5b60008060008481526020019081526020016000209050818160040160148282829054906101000a900460ff1661057891906114e0565b92506101000a81548160ff021916908360ff16021790555080600401601581819054906101000a900460ff16809291906105b19061166c565b91906101000a81548160ff021916908360ff16021790555050505050565b6000600360003373ffffffffffffffffffffffffffffffffffffffff1673ffffffffffffffffffffffffffffffffffffffff16815260200190815260200160002054905060008111610656576040517f08c379a000000000000000000000000000000000000000000000000000000000815260040161064d90611266565b60405180910390fd5b6000600360003373ffffffffffffffffffffffffffffffffffffffff1673ffffffffffffffffffffffffffffffffffffffff168152602001908152602001600020819055503373ffffffffffffffffffffffffffffffffffffffff166108fc829081150290604051600060405180830381858888f193505050501580156106e1573d6000803e3d6000fd5b5050565b60006060806000806000806000808981526020019081526020016000209050600073ffffffffffffffffffffffffffffffffffffffff168160040160009054906101000a900473ffffffffffffffffffffffffffffffffffffffff1673ffffffffffffffffffffffffffffffffffffffff161415610798576040517f08c379a000000000000000000000000000000000000000000000000000000000815260040161078f906112a6565b60405180910390fd5b6000808260040160159054906101000a900460ff1660ff16116107bc5760006107eb565b8160040160159054906101000a900460ff168260040160149054906101000a900460ff166107ea9190611517565b5b90508160000154826001018360020184600301548560040160009054906101000a900473ffffffffffffffffffffffffffffffffffffffff1685848054610831906115f1565b80601f016020809104026020016040519081016040528092919081815260200182805461085d906115f1565b80156108aa5780601f1061087f576101008083540402835291602001916108aa565b820191906000526020600020905b81548152906001019060200180831161088d57829003601f168201915b505050505094508380546108bd906115f1565b80601f01602080910402602001604051908101604052809291908181526020018280546108e9906115f1565b80156109365780601f1061090b57610100808354040283529160200191610936565b820191906000526020600020905b81548152906001019060200180831161091957829003601f168201915b50505050509350975097509750975097509750505091939550919395565b60026020528160005260406000206020528060005260406000206000915091509054906101000a900460ff1681565b60006020528060005260406000206000915090508060000154908060010180546109ac906115f1565b80601f01602080910402602001604051908101604052809291908181526020018280546109d8906115f1565b8015610a255780601f106109fa57610100808354040283529160200191610a25565b820191906000526020600020905b815481529060010190602001808311610a0857829003601f168201915b505050505090806002018054610a3a906115f1565b80601f0160208091040260200160405190810160405280929190818152602001828054610a66906115f1565b8015610ab35780601f10610a8857610100808354040283529160200191610ab3565b820191906000526020600020905b815481529060010190602001808311610a9657829003601f168201915b5050505050908060030154908060040160009054906101000a900473ffffffffffffffffffffffffffffffffffffffff16908060040160149054906101000a900460ff16908060040160159054906101000a900460ff16905087565b60015481565b6000806000838152602001908152602001600020905080600301543414610b71576040517f08c379a0000000000000000000000000000000000000000000000000000000008152600401610b6890611286565b60405180910390fd5b600073ffffffffffffffffffffffffffffffffffffffff168160040160009054906101000a900473ffffffffffffffffffffffffffffffffffffffff1673ffffffffffffffffffffffffffffffffffffffff161415610c05576040517f08c379a0000000000000000000000000000000000000000000000000000000008152600401610bfc906112a6565b60405180910390fd5b6001600260003373ffffffffffffffffffffffffffffffffffffffff1673ffffffffffffffffffffffffffffffffffffffff168152602001908152602001600020600084815260200190815260200160002060006101000a81548160ff02191690831515021790555034600360008360040160009054906101000a900473ffffffffffffffffffffffffffffffffffffffff1673ffffffffffffffffffffffffffffffffffffffff1673ffffffffffffffffffffffffffffffffffffffff1681526020019081526020016000206000828254610ce1919061148a565b925050819055505050565b6000600181905550565b60036020528060005260406000206000915090505481565b828054610d1a906115f1565b90600052602060002090601f016020900481019282610d3c5760008555610d83565b82601f10610d5557805160ff1916838001178555610d83565b82800160010185558215610d83579182015b82811115610d82578251825591602001919060010190610d67565b5b509050610d909190610d94565b5090565b5b80821115610dad576000816000905550600101610d95565b5090565b6000610dc4610dbf8461143e565b61140d565b905082815260208101848484011115610ddc57600080fd5b610de78482856115af565b509392505050565b600081359050610dfe81611763565b92915050565b600082601f830112610e1557600080fd5b8135610e25848260208601610db1565b91505092915050565b600081359050610e3d8161177a565b92915050565b600081359050610e5281611791565b92915050565b600060208284031215610e6a57600080fd5b6000610e7884828501610def565b91505092915050565b60008060408385031215610e9457600080fd5b6000610ea285828601610def565b9250506020610eb385828601610e2e565b9150509250929050565b600080600060608486031215610ed257600080fd5b600084013567ffffffffffffffff811115610eec57600080fd5b610ef886828701610e04565b935050602084013567ffffffffffffffff811115610f1557600080fd5b610f2186828701610e04565b9250506040610f3286828701610e2e565b9150509250925092565b600060208284031215610f4e57600080fd5b6000610f5c84828501610e2e565b91505092915050565b60008060408385031215610f7857600080fd5b6000610f8685828601610e2e565b9250506020610f9785828601610e43565b9150509250929050565b610faa8161155a565b82525050565b610fb981611548565b82525050565b610fc88161156c565b82525050565b6000610fd98261146e565b610fe38185611479565b9350610ff38185602086016115be565b610ffc81611752565b840191505092915050565b6000611014601f83611479565b91507f5072696365206d7573742062652067726561746572207468616e207a65726f006000830152602082019050919050565b6000611054601783611479565b91507f4d6f64656c20494420646f6573206e6f742065786973740000000000000000006000830152602082019050919050565b6000611094601483611479565b91507f4e6f2066756e647320746f2077697468647261770000000000000000000000006000830152602082019050919050565b60006110d4601483611479565b91507f496e636f72726563742076616c75652073656e740000000000000000000000006000830152602082019050919050565b6000611114601483611479565b91507f4d6f64656c20646f6573206e6f742065786973740000000000000000000000006000830152602082019050919050565b6000611154601e83611479565b91507f526174696e67206d757374206265206265747765656e203120616e64203500006000830152602082019050919050565b6000611194602183611479565b91507f596f752068617665206e6f74207075726368617365642074686973206d6f646560008301527f6c000000000000000000000000000000000000000000000000000000000000006020830152604082019050919050565b6111f681611598565b82525050565b611205816115a2565b82525050565b60006020820190506112206000830184610fbf565b92915050565b6000602082019050818103600083015261123f81611007565b9050919050565b6000602082019050818103600083015261125f81611047565b9050919050565b6000602082019050818103600083015261127f81611087565b9050919050565b6000602082019050818103600083015261129f816110c7565b9050919050565b600060208201905081810360008301526112bf81611107565b9050919050565b600060208201905081810360008301526112df81611147565b9050919050565b600060208201905081810360008301526112ff81611187565b9050919050565b600060208201905061131b60008301846111ed565b92915050565b600060e082019050611336600083018a6111ed565b81810360208301526113488189610fce565b9050818103604083015261135c8188610fce565b905061136b60608301876111ed565b6113786080830186610fa1565b61138560a08301856111fc565b61139260c08301846111fc565b98975050505050505050565b600060c0820190506113b360008301896111ed565b81810360208301526113c58188610fce565b905081810360408301526113d98187610fce565b90506113e860608301866111ed565b6113f56080830185610fb0565b61140260a08301846111fc565b979650505050505050565b6000604051905081810181811067ffffffffffffffff8211171561143457611433611723565b5b8060405250919050565b600067ffffffffffffffff82111561145957611458611723565b5b601f19601f8301169050602081019050919050565b600081519050919050565b600082825260208201905092915050565b600061149582611598565b91506114a083611598565b9250827fffffffffffffffffffffffffffffffffffffffffffffffffffffffffffffffff038211156114d5576114d4611696565b5b828201905092915050565b60006114eb826115a2565b91506114f6836115a2565b92508260ff0382111561150c5761150b611696565b5b828201905092915050565b6000611522826115a2565b915061152d836115a2565b92508261153d5761153c6116c5565b5b828204905092915050565b600061155382611578565b9050919050565b600061156582611578565b9050919050565b60008115159050919050565b600073ffffffffffffffffffffffffffffffffffffffff82169050919050565b6000819050919050565b600060ff82169050919050565b82818337600083830152505050565b60005b838110156115dc5780820151818401526020810190506115c1565b838111156115eb576000848401525b50505050565b6000600282049050600182168061160957607f821691505b6020821081141561161d5761161c6116f4565b5b50919050565b600061162e82611598565b91507fffffffffffffffffffffffffffffffffffffffffffffffffffffffffffffffff82141561166157611660611696565b5b600182019050919050565b6000611677826115a2565b915060ff82141561168b5761168a611696565b5b600182019050919050565b7f4e487b7100000000000000000000000000000000000000000000000000000000600052601160045260246000fd5b7f4e487b7100000000000000000000000000000000000000000000000000000000600052601260045260246000fd5b7f4e487b7100000000000000000000000000000000000000000000000000000000600052602260045260246000fd5b7f4e487b7100000000000000000000000000000000000000000000000000000000600052604160045260246000fd5b6000601f19601f8301169050919050565b61176c81611548565b811461177757600080fd5b50565b61178381611598565b811461178e57600080fd5b50565b61179a816115a2565b81146117a557600080fd5b5056fea26469706673582212200dd01a96d0f5bf913eb51e4605b075b750563be9ce8b4111921a8666d9b9c12d64736f6c63430008000033",
  "immutableReferences": {},
  "source": "// SPDX-License-Identifier: MIT\r\npragma solidity ^0.8.0;\r\n\r\ncontract Marketplace {\r\n\r\n//define data structure to store models\r\nstruct Model {\r\n    uint256 id;\r\n    string name;\r\n    string description;\r\n    uint256 price;\r\n    address payable creator;\r\n    uint8 ratingSum;\r\n    uint8 ratingCount;\r\n}\r\n\r\nmapping(uint256 => Model) public models;\r\nuint256 public modelCount;\r\n\r\nmapping(address => mapping(uint256 => bool)) public purchases;\r\nmapping(address => uint256) public pendingWithdrawals;\r\n\r\n// add model to the list\r\nfunction listModel(string memory name, string memory description, uint256 price) public {\r\n    require(price > 0, \"Price must be greater than zero\");\r\n    modelCount++;\r\n    models[modelCount] = Model(\r\n        modelCount,\r\n        name,\r\n        description,\r\n        price,\r\n        payable(msg.sender),\r\n        0,\r\n        0\r\n    );\r\n}\r\n\r\n//purchase model\r\nfunction purchaseModel(uint256 modelId) public payable {\r\n    Model storage model = models[modelId];\r\n    require(msg.value == model.price, \"Incorrect value sent\");\r\n    require(model.creator != address(0), \"Model does not exist\");\r\n\r\n    purchases[msg.sender][modelId] = true;\r\n    pendingWithdrawals[model.creator] += msg.value;\r\n}\r\n\r\n//rate model\r\nfunction rateModel(uint256 modelId, uint8 rating) public {\r\n    require(purchases[msg.sender][modelId], \"You have not purchased this model\");\r\n    require(modelId > 0 && modelId <= modelCount, \"Model ID does not exist\");\r\n    require(rating >= 1 && rating <= 5, \"Rating must be between 1 and 5\");\r\n\r\n    Model storage model = models[modelId];\r\n    model.ratingSum += rating;\r\n    model.ratingCount++;\r\n}\r\n\r\nfunction withdrawFunds() public {\r\n    uint256 amount = pendingWithdrawals[msg.sender];\r\n    require(amount > 0, \"No funds to withdraw\");\r\n\r\n    // Reset the pending balance before transferring to prevent re-entrancy attacks\r\n    pendingWithdrawals[msg.sender] = 0;\r\n    payable(msg.sender).transfer(amount);\r\n}\r\n\r\nfunction resetModels() public {\r\n    modelCount = 0;\r\n}\r\n\r\nfunction getModelDetails(uint256 modelId) public view returns (\r\n    uint256 id,\r\n    string memory name,\r\n    string memory description,\r\n    uint256 price,\r\n    address creator,\r\n    uint8 averageRating\r\n) {\r\n    Model storage model = models[modelId];\r\n    require(model.creator != address(0), \"Model does not exist\");\r\n    uint8 avgRating = model.ratingCount > 0 ? model.ratingSum / model.ratingCount : 0;\r\n    return (\r\n        model.id,\r\n        model.name,\r\n        model.description,\r\n        model.price,\r\n        model.creator,\r\n        avgRating\r\n    );\r\n}\r\n}",
  "sourcePath": "C:\\Users\\odolz\\Desktop\\3y1t\\Blockchain\\midterm\\assignment2\\contracts\\Marketplace.sol",
  "compiler": {
    "name": "solc",
    "version": "0.8.0+commit.c7dfd78e.Emscripten.clang"
  },
  "schemaVersion": "3.4.16",
  "updatedAt": "2024-10-02T06:59:27.913Z",
  "networkType": "ethereum",
  "devdoc": {
    "kind": "dev",
    "methods": {},
    "version": 1
  },
  "userdoc": {
    "kind": "user",
    "methods": {},
    "version": 1
  }
}